{
  "contractName": "MembershipVerificationToken",
  "abi": [
    {
      "constant": true,
      "inputs": [
        {
          "name": "interfaceId",
          "type": "bytes4"
        }
      ],
      "name": "supportsInterface",
      "outputs": [
        {
          "name": "",
          "type": "bool"
        }
      ],
      "payable": false,
      "stateMutability": "view",
      "type": "function"
    },
    {
      "constant": true,
      "inputs": [],
      "name": "name",
      "outputs": [
        {
          "name": "",
          "type": "string"
        }
      ],
      "payable": false,
      "stateMutability": "view",
      "type": "function"
    },
    {
      "constant": true,
      "inputs": [
        {
          "name": "",
          "type": "uint256"
        }
      ],
      "name": "attributeNames",
      "outputs": [
        {
          "name": "",
          "type": "bytes32"
        }
      ],
      "payable": false,
      "stateMutability": "view",
      "type": "function"
    },
    {
      "constant": true,
      "inputs": [
        {
          "name": "",
          "type": "uint256"
        }
      ],
      "name": "allHolders",
      "outputs": [
        {
          "name": "",
          "type": "address"
        }
      ],
      "payable": false,
      "stateMutability": "view",
      "type": "function"
    },
    {
      "constant": false,
      "inputs": [],
      "name": "renounceOwnership",
      "outputs": [],
      "payable": false,
      "stateMutability": "nonpayable",
      "type": "function"
    },
    {
      "constant": true,
      "inputs": [
        {
          "name": "",
          "type": "uint256"
        },
        {
          "name": "",
          "type": "uint256"
        }
      ],
      "name": "attributeValueCollection",
      "outputs": [
        {
          "name": "",
          "type": "bytes32"
        }
      ],
      "payable": false,
      "stateMutability": "view",
      "type": "function"
    },
    {
      "constant": true,
      "inputs": [],
      "name": "owner",
      "outputs": [
        {
          "name": "",
          "type": "address"
        }
      ],
      "payable": false,
      "stateMutability": "view",
      "type": "function"
    },
    {
      "constant": true,
      "inputs": [],
      "name": "isOwner",
      "outputs": [
        {
          "name": "",
          "type": "bool"
        }
      ],
      "payable": false,
      "stateMutability": "view",
      "type": "function"
    },
    {
      "constant": true,
      "inputs": [
        {
          "name": "",
          "type": "address"
        }
      ],
      "name": "currentHolders",
      "outputs": [
        {
          "name": "hasToken",
          "type": "bool"
        }
      ],
      "payable": false,
      "stateMutability": "view",
      "type": "function"
    },
    {
      "constant": true,
      "inputs": [],
      "name": "currentMemberCount",
      "outputs": [
        {
          "name": "",
          "type": "uint256"
        }
      ],
      "payable": false,
      "stateMutability": "view",
      "type": "function"
    },
    {
      "constant": true,
      "inputs": [],
      "name": "fee",
      "outputs": [
        {
          "name": "",
          "type": "uint256"
        }
      ],
      "payable": false,
      "stateMutability": "view",
      "type": "function"
    },
    {
      "constant": false,
      "inputs": [
        {
          "name": "newOwner",
          "type": "address"
        }
      ],
      "name": "transferOwnership",
      "outputs": [],
      "payable": false,
      "stateMutability": "nonpayable",
      "type": "function"
    },
    {
      "constant": true,
      "inputs": [
        {
          "name": "",
          "type": "address"
        }
      ],
      "name": "pendingRequests",
      "outputs": [
        {
          "name": "isPending",
          "type": "bool"
        }
      ],
      "payable": false,
      "stateMutability": "view",
      "type": "function"
    },
    {
      "inputs": [],
      "payable": false,
      "stateMutability": "nonpayable",
      "type": "constructor"
    },
    {
      "anonymous": false,
      "inputs": [
        {
          "indexed": true,
          "name": "_to",
          "type": "address"
        },
        {
          "indexed": false,
          "name": "attributeIndexes",
          "type": "uint256[]"
        }
      ],
      "name": "ApprovedMembership",
      "type": "event"
    },
    {
      "anonymous": false,
      "inputs": [
        {
          "indexed": true,
          "name": "_to",
          "type": "address"
        }
      ],
      "name": "RequestedMembership",
      "type": "event"
    },
    {
      "anonymous": false,
      "inputs": [
        {
          "indexed": true,
          "name": "_to",
          "type": "address"
        },
        {
          "indexed": false,
          "name": "attributeIndexes",
          "type": "uint256[]"
        }
      ],
      "name": "Assigned",
      "type": "event"
    },
    {
      "anonymous": false,
      "inputs": [
        {
          "indexed": true,
          "name": "_to",
          "type": "address"
        }
      ],
      "name": "Revoked",
      "type": "event"
    },
    {
      "anonymous": false,
      "inputs": [
        {
          "indexed": true,
          "name": "_to",
          "type": "address"
        }
      ],
      "name": "Forfeited",
      "type": "event"
    },
    {
      "anonymous": false,
      "inputs": [
        {
          "indexed": true,
          "name": "_to",
          "type": "address"
        },
        {
          "indexed": false,
          "name": "attributeIndex",
          "type": "uint256"
        },
        {
          "indexed": false,
          "name": "prevValueIndex",
          "type": "uint256"
        },
        {
          "indexed": false,
          "name": "prevValue",
          "type": "bytes32"
        },
        {
          "indexed": false,
          "name": "modifiedValueIndex",
          "type": "uint256"
        },
        {
          "indexed": false,
          "name": "modifiedValue",
          "type": "bytes32"
        }
      ],
      "name": "ModifiedAttributes",
      "type": "event"
    },
    {
      "anonymous": false,
      "inputs": [
        {
          "indexed": true,
          "name": "previousOwner",
          "type": "address"
        },
        {
          "indexed": true,
          "name": "newOwner",
          "type": "address"
        }
      ],
      "name": "OwnershipTransferred",
      "type": "event"
    },
    {
      "constant": false,
      "inputs": [
        {
          "name": "_attributeIndexes",
          "type": "uint256[]"
        }
      ],
      "name": "requestMembership",
      "outputs": [],
      "payable": true,
      "stateMutability": "payable",
      "type": "function"
    },
    {
      "constant": false,
      "inputs": [],
      "name": "forfeitMembership",
      "outputs": [],
      "payable": true,
      "stateMutability": "payable",
      "type": "function"
    },
    {
      "constant": false,
      "inputs": [
        {
          "name": "_user",
          "type": "address"
        }
      ],
      "name": "approveRequest",
      "outputs": [],
      "payable": false,
      "stateMutability": "nonpayable",
      "type": "function"
    },
    {
      "constant": false,
      "inputs": [
        {
          "name": "_user",
          "type": "address"
        }
      ],
      "name": "discardRequest",
      "outputs": [],
      "payable": false,
      "stateMutability": "nonpayable",
      "type": "function"
    },
    {
      "constant": false,
      "inputs": [
        {
          "name": "_to",
          "type": "address"
        },
        {
          "name": "_attributeIndexes",
          "type": "uint256[]"
        }
      ],
      "name": "assignTo",
      "outputs": [],
      "payable": false,
      "stateMutability": "nonpayable",
      "type": "function"
    },
    {
      "constant": false,
      "inputs": [
        {
          "name": "_from",
          "type": "address"
        }
      ],
      "name": "revokeFrom",
      "outputs": [],
      "payable": false,
      "stateMutability": "nonpayable",
      "type": "function"
    },
    {
      "constant": false,
      "inputs": [
        {
          "name": "_name",
          "type": "bytes32"
        },
        {
          "name": "values",
          "type": "bytes32[]"
        }
      ],
      "name": "addAttributeSet",
      "outputs": [],
      "payable": false,
      "stateMutability": "nonpayable",
      "type": "function"
    },
    {
      "constant": true,
      "inputs": [],
      "name": "getAllMembers",
      "outputs": [
        {
          "name": "",
          "type": "address[]"
        }
      ],
      "payable": false,
      "stateMutability": "view",
      "type": "function"
    },
    {
      "constant": true,
      "inputs": [],
      "name": "getCurrentMemberCount",
      "outputs": [
        {
          "name": "",
          "type": "uint256"
        }
      ],
      "payable": false,
      "stateMutability": "view",
      "type": "function"
    },
    {
      "constant": true,
      "inputs": [],
      "name": "getAttributeNames",
      "outputs": [
        {
          "name": "",
          "type": "bytes32[]"
        }
      ],
      "payable": false,
      "stateMutability": "view",
      "type": "function"
    },
    {
      "constant": true,
      "inputs": [
        {
          "name": "_index",
          "type": "uint256"
        }
      ],
      "name": "getAttributeExhaustiveCollection",
      "outputs": [
        {
          "name": "",
          "type": "bytes32[]"
        }
      ],
      "payable": false,
      "stateMutability": "view",
      "type": "function"
    },
    {
      "constant": true,
      "inputs": [
        {
          "name": "_who",
          "type": "address"
        },
        {
          "name": "_attributeIndex",
          "type": "uint256"
        }
      ],
      "name": "getAttributeByIndex",
      "outputs": [
        {
          "name": "",
          "type": "uint256"
        }
      ],
      "payable": false,
      "stateMutability": "view",
      "type": "function"
    },
    {
      "constant": true,
      "inputs": [
        {
          "name": "_who",
          "type": "address"
        }
      ],
      "name": "isCurrentMember",
      "outputs": [
        {
          "name": "",
          "type": "bool"
        }
      ],
      "payable": false,
      "stateMutability": "view",
      "type": "function"
    }
  ],
  "bytecode": "0x60806040526040518060400160405280601481526020017f426c6f636b636861696e204175737472616c69610000000000000000000000008152506003908051906020019062000051929190620002fe565b503480156200005f57600080fd5b50336000806101000a81548173ffffffffffffffffffffffffffffffffffffffff021916908373ffffffffffffffffffffffffffffffffffffffff1602179055506000809054906101000a900473ffffffffffffffffffffffffffffffffffffffff1673ffffffffffffffffffffffffffffffffffffffff16600073ffffffffffffffffffffffffffffffffffffffff167f8be0079c531659141344cd1fd0a4f28419497f9722a3daafe3b4186f6b6457e060405160405180910390a3620001596301ffc9a77c010000000000000000000000000000000000000000000000000000000002620001d9640100000000026401000000009004565b6200019663912f7bb27c010000000000000000000000000000000000000000000000000000000002620001d9640100000000026401000000009004565b620001d36383adfb2d7c010000000000000000000000000000000000000000000000000000000002620001d9640100000000026401000000009004565b620003ad565b63ffffffff7c010000000000000000000000000000000000000000000000000000000002817bffffffffffffffffffffffffffffffffffffffffffffffffffffffff1916141562000292576040517f08c379a000000000000000000000000000000000000000000000000000000000815260040180806020018281038252601c8152602001807f4552433136353a20696e76616c696420696e746572666163652069640000000081525060200191505060405180910390fd5b6001806000837bffffffffffffffffffffffffffffffffffffffffffffffffffffffff19167bffffffffffffffffffffffffffffffffffffffffffffffffffffffff1916815260200190815260200160002060006101000a81548160ff02191690831515021790555050565b828054600181600116156101000203166002900490600052602060002090601f016020900481019282601f106200034157805160ff191683800117855562000372565b8280016001018555821562000372579182015b828111156200037157825182559160200191906001019062000354565b5b50905062000381919062000385565b5090565b620003aa91905b80821115620003a65760008160009055506001016200038c565b5090565b90565b61223c80620003bd6000396000f3fe60806040526004361061019d576000357c0100000000000000000000000000000000000000000000000000000000900480638d614e76116100ee578063bbe06121116100a7578063ddca3f4311610081578063ddca3f431461097f578063deaa2600146109aa578063f2fde38b14610a3a578063fb22e65114610a8b5761019d565b8063bbe06121146108d8578063c89ed7aa14610903578063cb695ef4146109545761019d565b80638d614e761461071d5780638da5cb5b146107765780638f32d59b146107cd5780639d824a70146107fc578063a324a9cf14610865578063ae6b11431461086f5761019d565b80631800622e1161015b5780636112e48f116101355780636112e48f146105d0578063715018a6146106215780637c0f6b35146106385780637ec92e59146106a45761019d565b80631800622e1461049a57806346fee28f146104e95780634e6762fa146105645761019d565b8062c6abf9146101a257806301ffc9a71461023257806304c017c9146102a4578063061dff9a1461031357806306fdde031461036457806315bc9406146103f4575b600080fd5b3480156101ae57600080fd5b50610230600480360360408110156101c557600080fd5b8101908080359060200190929190803590602001906401000000008111156101ec57600080fd5b8201836020820111156101fe57600080fd5b8035906020019184602083028401116401000000008311171561022057600080fd5b9091929391929390505050610af4565b005b34801561023e57600080fd5b5061028a6004803603602081101561025557600080fd5b8101908080357bffffffffffffffffffffffffffffffffffffffffffffffffffffffff19169060200190929190505050610bef565b604051808215151515815260200191505060405180910390f35b3480156102b057600080fd5b506102fd600480360360408110156102c757600080fd5b81019080803573ffffffffffffffffffffffffffffffffffffffff16906020019092919080359060200190929190505050610c57565b6040518082815260200191505060405180910390f35b34801561031f57600080fd5b506103626004803603602081101561033657600080fd5b81019080803573ffffffffffffffffffffffffffffffffffffffff169060200190929190505050610d73565b005b34801561037057600080fd5b50610379610fa3565b6040518080602001828103825283818151815260200191508051906020019080838360005b838110156103b957808201518184015260208101905061039e565b50505050905090810190601f1680156103e65780820380516001836020036101000a031916815260200191505b509250505060405180910390f35b34801561040057600080fd5b506104986004803603604081101561041757600080fd5b81019080803573ffffffffffffffffffffffffffffffffffffffff1690602001909291908035906020019064010000000081111561045457600080fd5b82018360208201111561046657600080fd5b8035906020019184602083028401116401000000008311171561048857600080fd5b9091929391929390505050611041565b005b3480156104a657600080fd5b506104d3600480360360208110156104bd57600080fd5b8101908080359060200190929190505050611188565b6040518082815260200191505060405180910390f35b3480156104f557600080fd5b506105226004803603602081101561050c57600080fd5b81019080803590602001909291905050506111a9565b604051808273ffffffffffffffffffffffffffffffffffffffff1673ffffffffffffffffffffffffffffffffffffffff16815260200191505060405180910390f35b34801561057057600080fd5b506105796111e5565b6040518080602001828103825283818151815260200191508051906020019060200280838360005b838110156105bc5780820151818401526020810190506105a1565b505050509050019250505060405180910390f35b3480156105dc57600080fd5b5061061f600480360360208110156105f357600080fd5b81019080803573ffffffffffffffffffffffffffffffffffffffff16906020019092919050505061123d565b005b34801561062d57600080fd5b506106366113af565b005b34801561064457600080fd5b5061064d6114e8565b6040518080602001828103825283818151815260200191508051906020019060200280838360005b83811015610690578082015181840152602081019050610675565b505050509050019250505060405180910390f35b61071b600480360360208110156106ba57600080fd5b81019080803590602001906401000000008111156106d757600080fd5b8201836020820111156106e957600080fd5b8035906020019184602083028401116401000000008311171561070b57600080fd5b9091929391929390505050611576565b005b34801561072957600080fd5b506107606004803603604081101561074057600080fd5b81019080803590602001909291908035906020019092919050505061172b565b6040518082815260200191505060405180910390f35b34801561078257600080fd5b5061078b611759565b604051808273ffffffffffffffffffffffffffffffffffffffff1673ffffffffffffffffffffffffffffffffffffffff16815260200191505060405180910390f35b3480156107d957600080fd5b506107e2611782565b604051808215151515815260200191505060405180910390f35b34801561080857600080fd5b5061084b6004803603602081101561081f57600080fd5b81019080803573ffffffffffffffffffffffffffffffffffffffff1690602001909291905050506117d9565b604051808215151515815260200191505060405180910390f35b61086d611804565b005b34801561087b57600080fd5b506108be6004803603602081101561089257600080fd5b81019080803573ffffffffffffffffffffffffffffffffffffffff1690602001909291905050506118cd565b604051808215151515815260200191505060405180910390f35b3480156108e457600080fd5b506108ed6119c8565b6040518082815260200191505060405180910390f35b34801561090f57600080fd5b506109526004803603602081101561092657600080fd5b81019080803573ffffffffffffffffffffffffffffffffffffffff1690602001909291905050506119ce565b005b34801561096057600080fd5b50610969611a97565b6040518082815260200191505060405180910390f35b34801561098b57600080fd5b50610994611aa1565b6040518082815260200191505060405180910390f35b3480156109b657600080fd5b506109e3600480360360208110156109cd57600080fd5b8101908080359060200190929190505050611aa7565b6040518080602001828103825283818151815260200191508051906020019060200280838360005b83811015610a26578082015181840152602081019050610a0b565b505050509050019250505060405180910390f35b348015610a4657600080fd5b50610a8960048036036020811015610a5d57600080fd5b81019080803573ffffffffffffffffffffffffffffffffffffffff169060200190929190505050611b12565b005b348015610a9757600080fd5b50610ada60048036036020811015610aae57600080fd5b81019080803573ffffffffffffffffffffffffffffffffffffffff169060200190929190505050611b98565b604051808215151515815260200191505060405180910390f35b600583908060018154018082558091505090600182039060005260206000200160009091929091909150555060006004600060016005805490500381526020019081526020016000209050807f756e646566696e65640000000000000000000000000000000000000000000000908060018154018082558091505090600182039060005260206000200160009091926001029091909150555060008090505b83839050811015610be85781848483818110610bab57fe5b9050602002013590806001815401808255809150509060018203906000526020600020016000909192909190915055508080600101915050610b93565b5050505050565b600060016000837bffffffffffffffffffffffffffffffffffffffffffffffffffffffff19167bffffffffffffffffffffffffffffffffffffffffffffffffffffffff1916815260200190815260200160002060009054906101000a900460ff169050919050565b600081600660008573ffffffffffffffffffffffffffffffffffffffff1673ffffffffffffffffffffffffffffffffffffffff1681526020019081526020016000206001018054905011610d13576040517f08c379a000000000000000000000000000000000000000000000000000000000815260040180806020018281038252601f8152602001807f6461746120646f65736e277420657869737420666f722074686520757365720081525060200191505060405180910390fd5b600660008473ffffffffffffffffffffffffffffffffffffffff1673ffffffffffffffffffffffffffffffffffffffff1681526020019081526020016000206001018281548110610d6057fe5b9060005260206000200154905092915050565b610d7b611782565b610ded576040517f08c379a00000000000000000000000000000000000000000000000000000000081526004018080602001828103825260208152602001807f4f776e61626c653a2063616c6c6572206973206e6f7420746865206f776e657281525060200191505060405180910390fd5b6000600760008373ffffffffffffffffffffffffffffffffffffffff1673ffffffffffffffffffffffffffffffffffffffff16815260200190815260200160002090508060000160009054906101000a900460ff16610eb4576040517f08c379a00000000000000000000000000000000000000000000000000000000081526004018080602001828103825260158152602001807f4861736e27742073656e7420657468657220796574000000000000000000000081525060200191505060405180910390fd5b610f108282600101805480602002602001604051908101604052809291908181526020018280548015610f0657602002820191906000526020600020905b815481526020019060010190808311610ef2575b5050505050611bc3565b8173ffffffffffffffffffffffffffffffffffffffff167f68de97d2b1697dbc8e1b0866f403f9a6b8e991df52cb175c63371b50d8a1407b8260010160405180806020018281038252838181548152602001915080548015610f9157602002820191906000526020600020905b815481526020019060010190808311610f7d575b50509250505060405180910390a25050565b60038054600181600116156101000203166002900480601f0160208091040260200160405190810160405280929190818152602001828054600181600116156101000203166002900480156110395780601f1061100e57610100808354040283529160200191611039565b820191906000526020600020905b81548152906001019060200180831161101c57829003601f168201915b505050505081565b611049611782565b6110bb576040517f08c379a00000000000000000000000000000000000000000000000000000000081526004018080602001828103825260208152602001807f4f776e61626c653a2063616c6c6572206973206e6f7420746865206f776e657281525060200191505060405180910390fd5b61110683838380806020026020016040519081016040528093929190818152602001838360200280828437600081840152601f19601f82011690508083019250505050505050611bc3565b8273ffffffffffffffffffffffffffffffffffffffff167f4db82994b51536ac0e5c7f6220346d80decb2a185a0f443e9d1617a43bc8123c838360405180806020018281038252848482818152602001925060200280828437600081840152601f19601f820116905080830192505050935050505060405180910390a2505050565b6005818154811061119557fe5b906000526020600020016000915090505481565b600881815481106111b657fe5b906000526020600020016000915054906101000a900473ffffffffffffffffffffffffffffffffffffffff1681565b6060600580548060200260200160405190810160405280929190818152602001828054801561123357602002820191906000526020600020905b81548152602001906001019080831161121f575b5050505050905090565b611245611782565b6112b7576040517f08c379a00000000000000000000000000000000000000000000000000000000081526004018080602001828103825260208152602001807f4f776e61626c653a2063616c6c6572206973206e6f7420746865206f776e657281525060200191505060405180910390fd5b6000600760008373ffffffffffffffffffffffffffffffffffffffff1673ffffffffffffffffffffffffffffffffffffffff16815260200190815260200160002090508060000160009054906101000a900460ff1661137e576040517f08c379a00000000000000000000000000000000000000000000000000000000081526004018080602001828103825260158152602001807f4861736e27742073656e7420657468657220796574000000000000000000000081525060200191505060405180910390fd5b60008160000160006101000a81548160ff0219169083151502179055508060010160006113ab91906120ee565b5050565b6113b7611782565b611429576040517f08c379a00000000000000000000000000000000000000000000000000000000081526004018080602001828103825260208152602001807f4f776e61626c653a2063616c6c6572206973206e6f7420746865206f776e657281525060200191505060405180910390fd5b600073ffffffffffffffffffffffffffffffffffffffff166000809054906101000a900473ffffffffffffffffffffffffffffffffffffffff1673ffffffffffffffffffffffffffffffffffffffff167f8be0079c531659141344cd1fd0a4f28419497f9722a3daafe3b4186f6b6457e060405160405180910390a360008060006101000a81548173ffffffffffffffffffffffffffffffffffffffff021916908373ffffffffffffffffffffffffffffffffffffffff160217905550565b6060600880548060200260200160405190810160405280929190818152602001828054801561156c57602002820191906000526020600020905b8160009054906101000a900473ffffffffffffffffffffffffffffffffffffffff1673ffffffffffffffffffffffffffffffffffffffff1681526020019060010190808311611522575b5050505050905090565b61157f336118cd565b156115f2576040517f08c379a00000000000000000000000000000000000000000000000000000000081526004018080602001828103825260108152602001807f416c72656164792061206d656d6265720000000000000000000000000000000081525060200191505060405180910390fd5b600580549050828290501461166f576040517f08c379a000000000000000000000000000000000000000000000000000000000815260040180806020018281038252601c8152602001807f4e65656420746f20696e70757420616c6c20617474726962757465730000000081525060200191505060405180910390fd5b6000600760003373ffffffffffffffffffffffffffffffffffffffff1673ffffffffffffffffffffffffffffffffffffffff168152602001908152602001600020905060018160000160006101000a81548160ff02191690831515021790555082828260010191906116e292919061210f565b503373ffffffffffffffffffffffffffffffffffffffff167fc0e2b0436d54094aabbe5e320d8bf0bdfb4f1510c1e404d767a91638433fe69a60405160405180910390a2505050565b6004602052816000526040600020818154811061174457fe5b90600052602060002001600091509150505481565b60008060009054906101000a900473ffffffffffffffffffffffffffffffffffffffff16905090565b60008060009054906101000a900473ffffffffffffffffffffffffffffffffffffffff1673ffffffffffffffffffffffffffffffffffffffff163373ffffffffffffffffffffffffffffffffffffffff1614905090565b60066020528060005260406000206000915090508060000160009054906101000a900460ff16905081565b61180d336118cd565b61187f576040517f08c379a00000000000000000000000000000000000000000000000000000000081526004018080602001828103825260148152602001807f4e6f7420612063757272656e74206d656d62657200000000000000000000000081525060200191505060405180910390fd5b61188833611e92565b3373ffffffffffffffffffffffffffffffffffffffff167fc4c0d862b8fbecdc09138bf871948c94873f051ad636f7aa385814c8818fc73c60405160405180910390a2565b60008073ffffffffffffffffffffffffffffffffffffffff168273ffffffffffffffffffffffffffffffffffffffff161415611971576040517f08c379a000000000000000000000000000000000000000000000000000000000815260040180806020018281038252601e8152602001807f5a65726f20616464726573732063616e27742062652061206d656d626572000081525060200191505060405180910390fd5b600660008373ffffffffffffffffffffffffffffffffffffffff1673ffffffffffffffffffffffffffffffffffffffff16815260200190815260200160002060000160009054906101000a900460ff169050919050565b60095481565b6119d6611782565b611a48576040517f08c379a00000000000000000000000000000000000000000000000000000000081526004018080602001828103825260208152602001807f4f776e61626c653a2063616c6c6572206973206e6f7420746865206f776e657281525060200191505060405180910390fd5b611a5181611e92565b8073ffffffffffffffffffffffffffffffffffffffff167fb6fa8b8bd5eab60f292eca876e3ef90722275b785309d84b1de113ce0b8c4e7460405160405180910390a250565b6000600954905090565b60025481565b606060046000838152602001908152602001600020805480602002602001604051908101604052809291908181526020018280548015611b0657602002820191906000526020600020905b815481526020019060010190808311611af2575b50505050509050919050565b611b1a611782565b611b8c576040517f08c379a00000000000000000000000000000000000000000000000000000000081526004018080602001828103825260208152602001807f4f776e61626c653a2063616c6c6572206973206e6f7420746865206f776e657281525060200191505060405180910390fd5b611b9581611faa565b50565b60076020528060005260406000206000915090508060000160009054906101000a900460ff16905081565b600073ffffffffffffffffffffffffffffffffffffffff168273ffffffffffffffffffffffffffffffffffffffff161415611c66576040517f08c379a000000000000000000000000000000000000000000000000000000000815260040180806020018281038252601c8152602001807f43616e27742061737369676e20746f207a65726f20616464726573730000000081525060200191505060405180910390fd5b600580549050815114611ce1576040517f08c379a000000000000000000000000000000000000000000000000000000000815260040180806020018281038252601c8152602001807f4e65656420746f20696e70757420616c6c20617474726962757465730000000081525060200191505060405180910390fd5b611ce961215c565b600181600001901515908115158152505080600660008573ffffffffffffffffffffffffffffffffffffffff1673ffffffffffffffffffffffffffffffffffffffff16815260200190815260200160002060008201518160000160006101000a81548160ff0219169083151502179055506020820151816001019080519060200190611d76929190612178565b5090505060008090505b8251811015611e1557600660008573ffffffffffffffffffffffffffffffffffffffff1673ffffffffffffffffffffffffffffffffffffffff168152602001908152602001600020600101838281518110611dd757fe5b602002602001015190806001815401808255809150509060018203906000526020600020016000909192909190915055508080600101915050611d80565b5060088390806001815401808255809150509060018203906000526020600020016000909192909190916101000a81548173ffffffffffffffffffffffffffffffffffffffff021916908373ffffffffffffffffffffffffffffffffffffffff160217905550506001600960008282540192505081905550505050565b600073ffffffffffffffffffffffffffffffffffffffff168173ffffffffffffffffffffffffffffffffffffffff161415611f35576040517f08c379a000000000000000000000000000000000000000000000000000000000815260040180806020018281038252601e8152602001807f43616e2774207265766f6b652066726f6d207a65726f2061646472657373000081525060200191505060405180910390fd5b6000600660008373ffffffffffffffffffffffffffffffffffffffff1673ffffffffffffffffffffffffffffffffffffffff168152602001908152602001600020905060008160000160006101000a81548160ff02191690831515021790555060016009600082825403925050819055505050565b600073ffffffffffffffffffffffffffffffffffffffff168173ffffffffffffffffffffffffffffffffffffffff161415612030576040517f08c379a00000000000000000000000000000000000000000000000000000000081526004018080602001828103825260268152602001806121eb6026913960400191505060405180910390fd5b8073ffffffffffffffffffffffffffffffffffffffff166000809054906101000a900473ffffffffffffffffffffffffffffffffffffffff1673ffffffffffffffffffffffffffffffffffffffff167f8be0079c531659141344cd1fd0a4f28419497f9722a3daafe3b4186f6b6457e060405160405180910390a3806000806101000a81548173ffffffffffffffffffffffffffffffffffffffff021916908373ffffffffffffffffffffffffffffffffffffffff16021790555050565b508054600082559060005260206000209081019061210c91906121c5565b50565b82805482825590600052602060002090810192821561214b579160200282015b8281111561214a57823582559160200191906001019061212f565b5b50905061215891906121c5565b5090565b6040518060400160405280600015158152602001606081525090565b8280548282559060005260206000209081019282156121b4579160200282015b828111156121b3578251825591602001919060010190612198565b5b5090506121c191906121c5565b5090565b6121e791905b808211156121e35760008160009055506001016121cb565b5090565b9056fe4f776e61626c653a206e6577206f776e657220697320746865207a65726f2061646472657373a165627a7a72305820d59da0e3e55c247f3e6e1ee8f4fc89c664e022a71c1a0be7a1725b5f79e771e40029",
  "source": "pragma solidity ^0.5.8;\n\nimport \"./Ownable.sol\";\nimport \"./ERC165.sol\";\nimport \"./Interfaces.sol\";\n\ncontract MembershipVerificationToken is Ownable, ERC165 {\n\n    uint256 public fee;\n    string public name = \"Blockchain Australia\";\n\n    struct MemberData {\n        bool hasToken;\n        uint[] data;\n    }\n\n    struct PendingRequest {\n        bool isPending;\n        //bytes32[] attributes;\n        uint[] attributeIndexes;\n    }\n\n    mapping(uint => bytes32[]) public attributeValueCollection;\n    bytes32[] public attributeNames;\n\n    mapping(address => MemberData) public currentHolders;\n    mapping(address => PendingRequest) public pendingRequests;\n\n    address[] public allHolders;\n\n    uint public currentMemberCount;\n\n    event ApprovedMembership(address indexed _to, uint[] attributeIndexes);\n    event RequestedMembership(address indexed _to);\n    event Assigned(address indexed _to, uint[] attributeIndexes);\n    event Revoked(address indexed _to);\n    event Forfeited(address indexed _to);\n    \n    event ModifiedAttributes(\n        address indexed _to,\n        uint attributeIndex,\n        uint prevValueIndex,\n        bytes32 prevValue,\n        uint modifiedValueIndex,\n        bytes32 modifiedValue\n    );\n\n    constructor() public {\n        _registerInterface(0x912f7bb2); //IERC1261\n        _registerInterface(0x83adfb2d); //Ownable\n    }\n\n    modifier isCurrentHolder {\n        require(isCurrentMember(msg.sender), \"Not a current member\");\n        _;\n    }\n\n    function requestMembership(uint[] calldata _attributeIndexes) external payable {\n        require(!isCurrentMember(msg.sender), \"Already a member\");\n        require(_attributeIndexes.length == attributeNames.length, \"Need to input all attributes\");\n\n        //Do some checks before assigning membership\n        PendingRequest storage request = pendingRequests[msg.sender];\n        request.isPending = true;\n        request.attributeIndexes = _attributeIndexes;\n        \n        emit RequestedMembership(msg.sender);\n    }\n\n    function forfeitMembership() external payable isCurrentHolder {\n        _revoke(msg.sender);\n        emit Forfeited(msg.sender);\n    }\n\n    function approveRequest(address _user) external onlyOwner {\n        PendingRequest storage request = pendingRequests[_user];\n\n        require(request.isPending, \"Hasn't sent ether yet\");\n        _assign(_user, request.attributeIndexes);\n\n        emit ApprovedMembership(_user, request.attributeIndexes);\n    }\n\n    function discardRequest(address _user) external onlyOwner {\n        PendingRequest storage request = pendingRequests[_user];\n\n        require(request.isPending, \"Hasn't sent ether yet\");\n        request.isPending = false;\n\n        delete request.attributeIndexes;\n    }\n\n    function assignTo(address _to, uint[] calldata _attributeIndexes) external onlyOwner {\n        _assign(_to, _attributeIndexes);\n        emit Assigned(_to, _attributeIndexes);\n    }\n\n    function revokeFrom(address _from) external onlyOwner {\n        _revoke(_from);\n        emit Revoked(_from);\n    }\n\n    function addAttributeSet(bytes32 _name, bytes32[] calldata values) external {\n        attributeNames.push(_name);\n        bytes32[] storage storedValues = attributeValueCollection[attributeNames.length - 1];\n        storedValues.push(0x756e646566696e65640000000000000000000000000000000000000000000000);\n\n        for (uint index = 0; index < values.length; index++) {\n            storedValues.push(values[index]);\n        }\n    }\n\n    // function modifyAttributeByIndex(address _to, uint _attributeIndex, uint _modifiedValueIndex) external onlyOwner {\n    //     // uint attributeIndex = getIndexOfAttribute(_attributeName);\n    //     //require(currentHolders[_to].data.length > _attributeIndex, \"data doesn't exist for the user\");\n        \n    //     uint prevIndex = currentHolders[_to].data[_attributeIndex];\n    //     bytes32 prevValue = attributeValueCollection[_attributeIndex][prevIndex];\n    //     currentHolders[_to].data[_attributeIndex] = _modifiedValueIndex;\n    //     bytes32 modifiedValue = attributeValueCollection[_attributeIndex][_modifiedValueIndex];\n        \n    //     emit ModifiedAttributes(\n    //         _to,\n    //         _attributeIndex,\n    //         prevIndex,\n    //         prevValue,\n    //         _modifiedValueIndex,\n    //         modifiedValue\n    //     );\n    // }\n\n    function getAllMembers() external view returns (address[] memory) {\n        return allHolders;\n    }\n\n    function getCurrentMemberCount() external view returns (uint) {\n        return currentMemberCount;\n    }\n\n    function getAttributeNames() external view returns (bytes32[] memory) {\n        return attributeNames;\n    }\n\n    // function getAttributes(address _to) external view returns (bytes32[] memory) {\n    //     require(_to != address(0), \"Address cannot be zero\");\n    //     return currentHolders[_to].data;\n    // }\n\n    function getAttributeExhaustiveCollection(uint _index) external view returns (bytes32[] memory) {\n        return attributeValueCollection[_index];\n    }\n\n    function getAttributeByIndex(address _who, uint _attributeIndex) external view returns (uint) {\n        require(currentHolders[_who].data.length > _attributeIndex, \"data doesn't exist for the user\");\n        return currentHolders[_who].data[_attributeIndex];\n    }\n\n    function isCurrentMember(address _who) public view returns (bool) {\n        require(_who != address(0), \"Zero address can't be a member\");\n        return currentHolders[_who].hasToken;\n    }\n\n    function _assign(address _who, uint[] memory _attributeIndexes) internal {\n        require(_who != address(0), \"Can't assign to zero address\");\n        require(_attributeIndexes.length == attributeNames.length,\"Need to input all attributes\");\n\n        MemberData memory member;\n        member.hasToken = true;\n        currentHolders[_who] = member;\n\n        for (uint index = 0; index < _attributeIndexes.length; index++) {\n\n            currentHolders[_who].data.push(_attributeIndexes[index]);\n        }\n\n        allHolders.push(_who);\n        currentMemberCount += 1;\n    }\n\n    function _revoke(address _from) internal {\n        require(_from != address(0), \"Can't revoke from zero address\");\n        MemberData storage member = currentHolders[_from];\n        member.hasToken = false;\n        currentMemberCount -= 1;\n    }\n}",
  "sourcePath": "/home/lucascullen/GitHub/BitcoinBrisbane/MembershipToken/src/contracts/MembershipVerificationToken.sol",
  "compiler": {
    "name": "solc",
    "version": "0.5.8+commit.23d335f2.Emscripten.clang"
  },
  "schemaVersion": "3.0.1",
  "updatedAt": "2019-07-17T10:57:19.723Z",
  "devdoc": {
    "methods": {
      "isOwner()": {
        "details": "Returns true if the caller is the current owner."
      },
      "owner()": {
        "details": "Returns the address of the current owner."
      },
      "renounceOwnership()": {
        "details": "Leaves the contract without owner. It will not be possible to call `onlyOwner` functions anymore. Can only be called by the current owner.     * > Note: Renouncing ownership will leave the contract without an owner, thereby removing any functionality that is only available to the owner."
      },
      "supportsInterface(bytes4)": {
        "details": "See `IERC165.supportsInterface`.     * Time complexity O(1), guaranteed to always use less than 30 000 gas."
      },
      "transferOwnership(address)": {
        "details": "Transfers ownership of the contract to a new account (`newOwner`). Can only be called by the current owner."
      }
    }
  },
  "userdoc": {
    "methods": {}
  }
}