{
  "contractName": "MembershipVerificationToken",
  "abi": [
    {
      "constant": true,
      "inputs": [
        {
          "name": "interfaceId",
          "type": "bytes4"
        }
      ],
      "name": "supportsInterface",
      "outputs": [
        {
          "name": "",
          "type": "bool"
        }
      ],
      "payable": false,
      "stateMutability": "view",
      "type": "function"
    },
    {
      "constant": true,
      "inputs": [],
      "name": "name",
      "outputs": [
        {
          "name": "",
          "type": "string"
        }
      ],
      "payable": false,
      "stateMutability": "view",
      "type": "function"
    },
    {
      "constant": true,
      "inputs": [
        {
          "name": "",
          "type": "uint256"
        }
      ],
      "name": "attributeNames",
      "outputs": [
        {
          "name": "",
          "type": "bytes32"
        }
      ],
      "payable": false,
      "stateMutability": "view",
      "type": "function"
    },
    {
      "constant": true,
      "inputs": [
        {
          "name": "",
          "type": "uint256"
        }
      ],
      "name": "allHolders",
      "outputs": [
        {
          "name": "",
          "type": "address"
        }
      ],
      "payable": false,
      "stateMutability": "view",
      "type": "function"
    },
    {
      "constant": false,
      "inputs": [],
      "name": "renounceOwnership",
      "outputs": [],
      "payable": false,
      "stateMutability": "nonpayable",
      "type": "function"
    },
    {
      "constant": true,
      "inputs": [
        {
          "name": "",
          "type": "uint256"
        },
        {
          "name": "",
          "type": "uint256"
        }
      ],
      "name": "attributeValueCollection",
      "outputs": [
        {
          "name": "",
          "type": "bytes32"
        }
      ],
      "payable": false,
      "stateMutability": "view",
      "type": "function"
    },
    {
      "constant": true,
      "inputs": [],
      "name": "owner",
      "outputs": [
        {
          "name": "",
          "type": "address"
        }
      ],
      "payable": false,
      "stateMutability": "view",
      "type": "function"
    },
    {
      "constant": true,
      "inputs": [],
      "name": "isOwner",
      "outputs": [
        {
          "name": "",
          "type": "bool"
        }
      ],
      "payable": false,
      "stateMutability": "view",
      "type": "function"
    },
    {
      "constant": true,
      "inputs": [
        {
          "name": "",
          "type": "address"
        }
      ],
      "name": "currentHolders",
      "outputs": [
        {
          "name": "hasToken",
          "type": "bool"
        }
      ],
      "payable": false,
      "stateMutability": "view",
      "type": "function"
    },
    {
      "constant": true,
      "inputs": [],
      "name": "currentMemberCount",
      "outputs": [
        {
          "name": "",
          "type": "uint256"
        }
      ],
      "payable": false,
      "stateMutability": "view",
      "type": "function"
    },
    {
      "constant": true,
      "inputs": [],
      "name": "fee",
      "outputs": [
        {
          "name": "",
          "type": "uint256"
        }
      ],
      "payable": false,
      "stateMutability": "view",
      "type": "function"
    },
    {
      "constant": false,
      "inputs": [
        {
          "name": "newOwner",
          "type": "address"
        }
      ],
      "name": "transferOwnership",
      "outputs": [],
      "payable": false,
      "stateMutability": "nonpayable",
      "type": "function"
    },
    {
      "constant": true,
      "inputs": [
        {
          "name": "",
          "type": "address"
        }
      ],
      "name": "pendingRequests",
      "outputs": [
        {
          "name": "isPending",
          "type": "bool"
        }
      ],
      "payable": false,
      "stateMutability": "view",
      "type": "function"
    },
    {
      "inputs": [],
      "payable": false,
      "stateMutability": "nonpayable",
      "type": "constructor"
    },
    {
      "anonymous": false,
      "inputs": [
        {
          "indexed": true,
          "name": "_to",
          "type": "address"
        },
        {
          "indexed": false,
          "name": "attributeIndexes",
          "type": "uint256[]"
        }
      ],
      "name": "ApprovedMembership",
      "type": "event"
    },
    {
      "anonymous": false,
      "inputs": [
        {
          "indexed": true,
          "name": "_to",
          "type": "address"
        }
      ],
      "name": "RequestedMembership",
      "type": "event"
    },
    {
      "anonymous": false,
      "inputs": [
        {
          "indexed": true,
          "name": "_to",
          "type": "address"
        },
        {
          "indexed": false,
          "name": "attributeIndexes",
          "type": "uint256[]"
        }
      ],
      "name": "Assigned",
      "type": "event"
    },
    {
      "anonymous": false,
      "inputs": [
        {
          "indexed": true,
          "name": "_to",
          "type": "address"
        }
      ],
      "name": "Revoked",
      "type": "event"
    },
    {
      "anonymous": false,
      "inputs": [
        {
          "indexed": true,
          "name": "_to",
          "type": "address"
        }
      ],
      "name": "Forfeited",
      "type": "event"
    },
    {
      "anonymous": false,
      "inputs": [
        {
          "indexed": true,
          "name": "_to",
          "type": "address"
        },
        {
          "indexed": false,
          "name": "attributeIndex",
          "type": "uint256"
        },
        {
          "indexed": false,
          "name": "prevValueIndex",
          "type": "uint256"
        },
        {
          "indexed": false,
          "name": "prevValue",
          "type": "bytes32"
        },
        {
          "indexed": false,
          "name": "modifiedValueIndex",
          "type": "uint256"
        },
        {
          "indexed": false,
          "name": "modifiedValue",
          "type": "bytes32"
        }
      ],
      "name": "ModifiedAttributes",
      "type": "event"
    },
    {
      "anonymous": false,
      "inputs": [
        {
          "indexed": true,
          "name": "previousOwner",
          "type": "address"
        },
        {
          "indexed": true,
          "name": "newOwner",
          "type": "address"
        }
      ],
      "name": "OwnershipTransferred",
      "type": "event"
    },
    {
      "constant": false,
      "inputs": [
        {
          "name": "_user",
          "type": "address"
        }
      ],
      "name": "discardRequest",
      "outputs": [],
      "payable": false,
      "stateMutability": "nonpayable",
      "type": "function"
    },
    {
      "constant": false,
      "inputs": [
        {
          "name": "_to",
          "type": "address"
        },
        {
          "name": "_attributeIndexes",
          "type": "uint256[]"
        }
      ],
      "name": "assignTo",
      "outputs": [],
      "payable": false,
      "stateMutability": "nonpayable",
      "type": "function"
    },
    {
      "constant": false,
      "inputs": [
        {
          "name": "_from",
          "type": "address"
        }
      ],
      "name": "revokeFrom",
      "outputs": [],
      "payable": false,
      "stateMutability": "nonpayable",
      "type": "function"
    },
    {
      "constant": false,
      "inputs": [
        {
          "name": "_name",
          "type": "bytes32"
        },
        {
          "name": "values",
          "type": "bytes32[]"
        }
      ],
      "name": "addAttributeSet",
      "outputs": [],
      "payable": false,
      "stateMutability": "nonpayable",
      "type": "function"
    },
    {
      "constant": true,
      "inputs": [],
      "name": "getAllMembers",
      "outputs": [
        {
          "name": "",
          "type": "address[]"
        }
      ],
      "payable": false,
      "stateMutability": "view",
      "type": "function"
    },
    {
      "constant": true,
      "inputs": [],
      "name": "getCurrentMemberCount",
      "outputs": [
        {
          "name": "",
          "type": "uint256"
        }
      ],
      "payable": false,
      "stateMutability": "view",
      "type": "function"
    },
    {
      "constant": true,
      "inputs": [],
      "name": "getAttributeNames",
      "outputs": [
        {
          "name": "",
          "type": "bytes32[]"
        }
      ],
      "payable": false,
      "stateMutability": "view",
      "type": "function"
    },
    {
      "constant": true,
      "inputs": [
        {
          "name": "_index",
          "type": "uint256"
        }
      ],
      "name": "getAttributeExhaustiveCollection",
      "outputs": [
        {
          "name": "",
          "type": "bytes32[]"
        }
      ],
      "payable": false,
      "stateMutability": "view",
      "type": "function"
    },
    {
      "constant": true,
      "inputs": [
        {
          "name": "_to",
          "type": "address"
        }
      ],
      "name": "isCurrentMember",
      "outputs": [
        {
          "name": "",
          "type": "bool"
        }
      ],
      "payable": false,
      "stateMutability": "view",
      "type": "function"
    }
  ],
  "bytecode": "0x60806040526040518060400160405280601481526020017f426c6f636b636861696e204175737472616c69610000000000000000000000008152506003908051906020019062000051929190620002fe565b503480156200005f57600080fd5b50336000806101000a81548173ffffffffffffffffffffffffffffffffffffffff021916908373ffffffffffffffffffffffffffffffffffffffff1602179055506000809054906101000a900473ffffffffffffffffffffffffffffffffffffffff1673ffffffffffffffffffffffffffffffffffffffff16600073ffffffffffffffffffffffffffffffffffffffff167f8be0079c531659141344cd1fd0a4f28419497f9722a3daafe3b4186f6b6457e060405160405180910390a3620001596301ffc9a77c010000000000000000000000000000000000000000000000000000000002620001d9640100000000026401000000009004565b6200019663912f7bb27c010000000000000000000000000000000000000000000000000000000002620001d9640100000000026401000000009004565b620001d36383adfb2d7c010000000000000000000000000000000000000000000000000000000002620001d9640100000000026401000000009004565b620003ad565b63ffffffff7c010000000000000000000000000000000000000000000000000000000002817bffffffffffffffffffffffffffffffffffffffffffffffffffffffff1916141562000292576040517f08c379a000000000000000000000000000000000000000000000000000000000815260040180806020018281038252601c8152602001807f4552433136353a20696e76616c696420696e746572666163652069640000000081525060200191505060405180910390fd5b6001806000837bffffffffffffffffffffffffffffffffffffffffffffffffffffffff19167bffffffffffffffffffffffffffffffffffffffffffffffffffffffff1916815260200190815260200160002060006101000a81548160ff02191690831515021790555050565b828054600181600116156101000203166002900490600052602060002090601f016020900481019282601f106200034157805160ff191683800117855562000372565b8280016001018555821562000372579182015b828111156200037157825182559160200191906001019062000354565b5b50905062000381919062000385565b5090565b620003aa91905b80821115620003a65760008160009055506001016200038c565b5090565b90565b61160280620003bd6000396000f3fe608060405234801561001057600080fd5b506004361061015e576000357c0100000000000000000000000000000000000000000000000000000000900480638da5cb5b116100d5578063c89ed7aa11610099578063c89ed7aa146106b1578063cb695ef4146106f5578063ddca3f4314610713578063deaa260014610731578063f2fde38b146107b4578063fb22e651146107f85761015e565b80638da5cb5b1461056f5780638f32d59b146105b95780639d824a70146105db578063ae6b114314610637578063bbe06121146106935761015e565b806346fee28f1161012757806346fee28f146103a95780634e6762fa146104175780636112e48f14610476578063715018a6146104ba5780637c0f6b35146104c45780638d614e76146105235761015e565b8062c6abf91461016357806301ffc9a7146101e657806306fdde031461024b57806315bc9406146102ce5780631800622e14610367575b600080fd5b6101e46004803603604081101561017957600080fd5b8101908080359060200190929190803590602001906401000000008111156101a057600080fd5b8201836020820111156101b257600080fd5b803590602001918460208302840111640100000000831117156101d457600080fd5b9091929391929390505050610854565b005b610231600480360360208110156101fc57600080fd5b8101908080357bffffffffffffffffffffffffffffffffffffffffffffffffffffffff1916906020019092919050505061094f565b604051808215151515815260200191505060405180910390f35b6102536109b7565b6040518080602001828103825283818151815260200191508051906020019080838360005b83811015610293578082015181840152602081019050610278565b50505050905090810190601f1680156102c05780820380516001836020036101000a031916815260200191505b509250505060405180910390f35b610365600480360360408110156102e457600080fd5b81019080803573ffffffffffffffffffffffffffffffffffffffff1690602001909291908035906020019064010000000081111561032157600080fd5b82018360208201111561033357600080fd5b8035906020019184602083028401116401000000008311171561035557600080fd5b9091929391929390505050610a55565b005b6103936004803603602081101561037d57600080fd5b8101908080359060200190929190505050610b51565b6040518082815260200191505060405180910390f35b6103d5600480360360208110156103bf57600080fd5b8101908080359060200190929190505050610b72565b604051808273ffffffffffffffffffffffffffffffffffffffff1673ffffffffffffffffffffffffffffffffffffffff16815260200191505060405180910390f35b61041f610bae565b6040518080602001828103825283818151815260200191508051906020019060200280838360005b83811015610462578082015181840152602081019050610447565b505050509050019250505060405180910390f35b6104b86004803603602081101561048c57600080fd5b81019080803573ffffffffffffffffffffffffffffffffffffffff169060200190929190505050610c06565b005b6104c2610d78565b005b6104cc610eb1565b6040518080602001828103825283818151815260200191508051906020019060200280838360005b8381101561050f5780820151818401526020810190506104f4565b505050509050019250505060405180910390f35b6105596004803603604081101561053957600080fd5b810190808035906020019092919080359060200190929190505050610f3f565b6040518082815260200191505060405180910390f35b610577610f6d565b604051808273ffffffffffffffffffffffffffffffffffffffff1673ffffffffffffffffffffffffffffffffffffffff16815260200191505060405180910390f35b6105c1610f96565b604051808215151515815260200191505060405180910390f35b61061d600480360360208110156105f157600080fd5b81019080803573ffffffffffffffffffffffffffffffffffffffff169060200190929190505050610fed565b604051808215151515815260200191505060405180910390f35b6106796004803603602081101561064d57600080fd5b81019080803573ffffffffffffffffffffffffffffffffffffffff169060200190929190505050611018565b604051808215151515815260200191505060405180910390f35b61069b611113565b6040518082815260200191505060405180910390f35b6106f3600480360360208110156106c757600080fd5b81019080803573ffffffffffffffffffffffffffffffffffffffff169060200190929190505050611119565b005b6106fd6111e2565b6040518082815260200191505060405180910390f35b61071b6111ec565b6040518082815260200191505060405180910390f35b61075d6004803603602081101561074757600080fd5b81019080803590602001909291905050506111f2565b6040518080602001828103825283818151815260200191508051906020019060200280838360005b838110156107a0578082015181840152602081019050610785565b505050509050019250505060405180910390f35b6107f6600480360360208110156107ca57600080fd5b81019080803573ffffffffffffffffffffffffffffffffffffffff16906020019092919050505061125d565b005b61083a6004803603602081101561080e57600080fd5b81019080803573ffffffffffffffffffffffffffffffffffffffff1690602001909291905050506112e3565b604051808215151515815260200191505060405180910390f35b600583908060018154018082558091505090600182039060005260206000200160009091929091909150555060006004600060016005805490500381526020019081526020016000209050807f756e646566696e65640000000000000000000000000000000000000000000000908060018154018082558091505090600182039060005260206000200160009091926001029091909150555060008090505b83839050811015610948578184848381811061090b57fe5b90506020020135908060018154018082558091505090600182039060005260206000200160009091929091909150555080806001019150506108f3565b5050505050565b600060016000837bffffffffffffffffffffffffffffffffffffffffffffffffffffffff19167bffffffffffffffffffffffffffffffffffffffffffffffffffffffff1916815260200190815260200160002060009054906101000a900460ff169050919050565b60038054600181600116156101000203166002900480601f016020809104026020016040519081016040528092919081815260200182805460018160011615610100020316600290048015610a4d5780601f10610a2257610100808354040283529160200191610a4d565b820191906000526020600020905b815481529060010190602001808311610a3057829003601f168201915b505050505081565b610a5d610f96565b610acf576040517f08c379a00000000000000000000000000000000000000000000000000000000081526004018080602001828103825260208152602001807f4f776e61626c653a2063616c6c6572206973206e6f7420746865206f776e657281525060200191505060405180910390fd5b8273ffffffffffffffffffffffffffffffffffffffff167f4db82994b51536ac0e5c7f6220346d80decb2a185a0f443e9d1617a43bc8123c838360405180806020018281038252848482818152602001925060200280828437600081840152601f19601f820116905080830192505050935050505060405180910390a2505050565b60058181548110610b5e57fe5b906000526020600020016000915090505481565b60088181548110610b7f57fe5b906000526020600020016000915054906101000a900473ffffffffffffffffffffffffffffffffffffffff1681565b60606005805480602002602001604051908101604052809291908181526020018280548015610bfc57602002820191906000526020600020905b815481526020019060010190808311610be8575b5050505050905090565b610c0e610f96565b610c80576040517f08c379a00000000000000000000000000000000000000000000000000000000081526004018080602001828103825260208152602001807f4f776e61626c653a2063616c6c6572206973206e6f7420746865206f776e657281525060200191505060405180910390fd5b6000600760008373ffffffffffffffffffffffffffffffffffffffff1673ffffffffffffffffffffffffffffffffffffffff16815260200190815260200160002090508060000160009054906101000a900460ff16610d47576040517f08c379a00000000000000000000000000000000000000000000000000000000081526004018080602001828103825260158152602001807f4861736e27742073656e7420657468657220796574000000000000000000000081525060200191505060405180910390fd5b60008160000160006101000a81548160ff021916908315150217905550806001016000610d74919061156a565b5050565b610d80610f96565b610df2576040517f08c379a00000000000000000000000000000000000000000000000000000000081526004018080602001828103825260208152602001807f4f776e61626c653a2063616c6c6572206973206e6f7420746865206f776e657281525060200191505060405180910390fd5b600073ffffffffffffffffffffffffffffffffffffffff166000809054906101000a900473ffffffffffffffffffffffffffffffffffffffff1673ffffffffffffffffffffffffffffffffffffffff167f8be0079c531659141344cd1fd0a4f28419497f9722a3daafe3b4186f6b6457e060405160405180910390a360008060006101000a81548173ffffffffffffffffffffffffffffffffffffffff021916908373ffffffffffffffffffffffffffffffffffffffff160217905550565b60606008805480602002602001604051908101604052809291908181526020018280548015610f3557602002820191906000526020600020905b8160009054906101000a900473ffffffffffffffffffffffffffffffffffffffff1673ffffffffffffffffffffffffffffffffffffffff1681526020019060010190808311610eeb575b5050505050905090565b60046020528160005260406000208181548110610f5857fe5b90600052602060002001600091509150505481565b60008060009054906101000a900473ffffffffffffffffffffffffffffffffffffffff16905090565b60008060009054906101000a900473ffffffffffffffffffffffffffffffffffffffff1673ffffffffffffffffffffffffffffffffffffffff163373ffffffffffffffffffffffffffffffffffffffff1614905090565b60066020528060005260406000206000915090508060000160009054906101000a900460ff16905081565b60008073ffffffffffffffffffffffffffffffffffffffff168273ffffffffffffffffffffffffffffffffffffffff1614156110bc576040517f08c379a000000000000000000000000000000000000000000000000000000000815260040180806020018281038252601e8152602001807f5a65726f20616464726573732063616e27742062652061206d656d626572000081525060200191505060405180910390fd5b600660008373ffffffffffffffffffffffffffffffffffffffff1673ffffffffffffffffffffffffffffffffffffffff16815260200190815260200160002060000160009054906101000a900460ff169050919050565b60095481565b611121610f96565b611193576040517f08c379a00000000000000000000000000000000000000000000000000000000081526004018080602001828103825260208152602001807f4f776e61626c653a2063616c6c6572206973206e6f7420746865206f776e657281525060200191505060405180910390fd5b61119c8161130e565b8073ffffffffffffffffffffffffffffffffffffffff167fb6fa8b8bd5eab60f292eca876e3ef90722275b785309d84b1de113ce0b8c4e7460405160405180910390a250565b6000600954905090565b60025481565b60606004600083815260200190815260200160002080548060200260200160405190810160405280929190818152602001828054801561125157602002820191906000526020600020905b81548152602001906001019080831161123d575b50505050509050919050565b611265610f96565b6112d7576040517f08c379a00000000000000000000000000000000000000000000000000000000081526004018080602001828103825260208152602001807f4f776e61626c653a2063616c6c6572206973206e6f7420746865206f776e657281525060200191505060405180910390fd5b6112e081611426565b50565b60076020528060005260406000206000915090508060000160009054906101000a900460ff16905081565b600073ffffffffffffffffffffffffffffffffffffffff168173ffffffffffffffffffffffffffffffffffffffff1614156113b1576040517f08c379a000000000000000000000000000000000000000000000000000000000815260040180806020018281038252601e8152602001807f43616e2774207265766f6b652066726f6d207a65726f2061646472657373000081525060200191505060405180910390fd5b6000600660008373ffffffffffffffffffffffffffffffffffffffff1673ffffffffffffffffffffffffffffffffffffffff168152602001908152602001600020905060008160000160006101000a81548160ff02191690831515021790555060016009600082825403925050819055505050565b600073ffffffffffffffffffffffffffffffffffffffff168173ffffffffffffffffffffffffffffffffffffffff1614156114ac576040517f08c379a00000000000000000000000000000000000000000000000000000000081526004018080602001828103825260268152602001806115b16026913960400191505060405180910390fd5b8073ffffffffffffffffffffffffffffffffffffffff166000809054906101000a900473ffffffffffffffffffffffffffffffffffffffff1673ffffffffffffffffffffffffffffffffffffffff167f8be0079c531659141344cd1fd0a4f28419497f9722a3daafe3b4186f6b6457e060405160405180910390a3806000806101000a81548173ffffffffffffffffffffffffffffffffffffffff021916908373ffffffffffffffffffffffffffffffffffffffff16021790555050565b5080546000825590600052602060002090810190611588919061158b565b50565b6115ad91905b808211156115a9576000816000905550600101611591565b5090565b9056fe4f776e61626c653a206e6577206f776e657220697320746865207a65726f2061646472657373a165627a7a723058200afd585461720770abce2a27bd046d44bb4aefd0e476e0ce9aa465fd88fff4860029",
  "source": "pragma solidity ^0.5.8;\n\nimport \"./Ownable.sol\";\nimport \"./ERC165.sol\";\nimport \"./Interfaces.sol\";\n\ncontract MembershipVerificationToken is Ownable, ERC165 {\n\n    uint256 public fee;\n    string public name = \"Blockchain Australia\";\n\n    struct MemberData {\n        bool hasToken;\n        bytes[] data;\n    }\n\n    struct PendingRequest {\n        bool isPending;\n        bytes32[] attributes;\n    }\n\n    mapping(uint => bytes32[]) public attributeValueCollection;\n    bytes32[] public attributeNames;\n\n    mapping(address => MemberData) public currentHolders;\n    mapping(address => PendingRequest) public pendingRequests;\n\n    address[] public allHolders;\n\n    uint public currentMemberCount;\n\n    event ApprovedMembership(address indexed _to, uint[] attributeIndexes);\n    event RequestedMembership(address indexed _to);\n    event Assigned(address indexed _to, uint[] attributeIndexes);\n    event Revoked(address indexed _to);\n    event Forfeited(address indexed _to);\n    \n    event ModifiedAttributes(\n        address indexed _to,\n        uint attributeIndex,\n        uint prevValueIndex,\n        bytes32 prevValue,\n        uint modifiedValueIndex,\n        bytes32 modifiedValue\n    );\n\n    constructor() public {\n        _registerInterface(0x912f7bb2); //IERC1261\n        _registerInterface(0x83adfb2d); //Ownable\n    }\n\n    modifier isCurrentHolder {\n        require(isCurrentMember(msg.sender), \"Not a current member\");\n        _;\n    }\n\n    // function requestMembership(uint[] _attributeIndexes) external payable {\n    //     require(!isCurrentMember(msg.sender), \"Already a member\");\n    //     require(_attributeIndexes.length == attributeNames.length, \"Need to input all attributes\");\n\n    //     //Do some checks before assigning membership\n    //     PendingRequest storage request = pendingRequests[msg.sender];\n    //     request.isPending = true;\n    //     request.attributes = _attributeIndexes;\n    //     emit RequestedMembership(msg.sender);\n    // }\n\n    // function forfeitMembership() external payable isCurrentHolder {\n    //     _revoke(msg.sender);\n    //     emit Forfeited(msg.sender);\n    // }\n\n    // function approveRequest(address _user) external onlyOwner {\n    //     PendingRequest storage request = pendingRequests[_user];\n    //     require(request.isPending, \"Hasn't sent ether yet\");\n    //     _assign(_user, request.attributes);\n    //     emit ApprovedMembership(_user, request.attributes);\n    // }\n\n    function discardRequest(address _user) external onlyOwner {\n        PendingRequest storage request = pendingRequests[_user];\n        require(request.isPending, \"Hasn't sent ether yet\");\n        request.isPending = false;\n        delete request.attributes;\n    }\n\n    function assignTo(address _to, uint[] calldata _attributeIndexes) external onlyOwner {\n        //_assign(_to, _attributeIndexes);\n        emit Assigned(_to, _attributeIndexes);\n    }\n\n    function revokeFrom(address _from) external onlyOwner {\n        _revoke(_from);\n        emit Revoked(_from);\n    }\n\n    function addAttributeSet(bytes32 _name, bytes32[] calldata values) external {\n        attributeNames.push(_name);\n        bytes32[] storage storedValues = attributeValueCollection[attributeNames.length - 1];\n        storedValues.push(0x756e646566696e65640000000000000000000000000000000000000000000000);\n        \n        for (uint index = 0; index < values.length; index++) {\n            storedValues.push(values[index]);\n        }\n    }\n\n    // function modifyAttributeByIndex(address _to, uint _attributeIndex, uint _modifiedValueIndex) external onlyOwner {\n    //     // uint attributeIndex = getIndexOfAttribute(_attributeName);\n    //     //require(currentHolders[_to].data.length > _attributeIndex, \"data doesn't exist for the user\");\n        \n    //     uint prevIndex = currentHolders[_to].data[_attributeIndex];\n    //     bytes32 prevValue = attributeValueCollection[_attributeIndex][prevIndex];\n    //     currentHolders[_to].data[_attributeIndex] = _modifiedValueIndex;\n    //     bytes32 modifiedValue = attributeValueCollection[_attributeIndex][_modifiedValueIndex];\n        \n    //     emit ModifiedAttributes(\n    //         _to,\n    //         _attributeIndex,\n    //         prevIndex,\n    //         prevValue,\n    //         _modifiedValueIndex,\n    //         modifiedValue\n    //     );\n    // }\n\n    function getAllMembers() external view returns (address[] memory) {\n        return allHolders;\n    }\n\n    function getCurrentMemberCount() external view returns (uint) {\n        return currentMemberCount;\n    }\n\n    function getAttributeNames() external view returns (bytes32[] memory) {\n        return attributeNames;\n    }\n\n    // function getAttributes(address _to) external view returns (bytes32[] memory) {\n    //     require(_to != address(0), \"Address cannot be zero\");\n    //     return currentHolders[_to].data;\n    // }\n\n    function getAttributeExhaustiveCollection(uint _index) external view returns (bytes32[] memory) {\n        return attributeValueCollection[_index];\n    }\n\n    // function getAttributeByIndex(address _to, uint _attributeIndex) external view returns (bytes32) {\n    //     require(currentHolders[_to].data.length > _attributeIndex,\"data doesn't exist for the user\");\n    //     return currentHolders[_to].data[_attributeIndex];\n    // }\n\n    function isCurrentMember(address _to) public view returns (bool) {\n        require(_to != address(0), \"Zero address can't be a member\");\n        return currentHolders[_to].hasToken;\n    }\n\n    // function _assign(address _to, uint[] memory _attributeIndexes) internal {\n    //     require(_to != address(0), \"Can't assign to zero address\");\n    //     require(\n    //         _attributeIndexes.length == attributeNames.length,\n    //         \"Need to input all attributes\"\n    //     );\n    //     MemberData memory member;\n    //     member.hasToken = true;\n    //     currentHolders[_to] = member;\n    //     for (uint index = 0; index < _attributeIndexes.length; index++) {\n    //         currentHolders[_to].data.push(_attributeIndexes[index]);\n    //     }\n    //     allHolders.push(_to);\n    //     currentMemberCount += 1;\n    // }\n\n    function _revoke(address _from) internal {\n        require(_from != address(0), \"Can't revoke from zero address\");\n        MemberData storage member = currentHolders[_from];\n        member.hasToken = false;\n        currentMemberCount -= 1;\n    }\n}",
  "sourcePath": "/home/lucascullen/GitHub/BlockchainAustralia/BlockChainMemberships/src/contracts/MembershipVerificationToken.sol",
  "compiler": {
    "name": "solc",
    "version": "0.5.8+commit.23d335f2.Emscripten.clang"
  },
  "schemaVersion": "3.0.1",
  "updatedAt": "2019-07-13T19:18:53.147Z",
  "devdoc": {
    "methods": {
      "isOwner()": {
        "details": "Returns true if the caller is the current owner."
      },
      "owner()": {
        "details": "Returns the address of the current owner."
      },
      "renounceOwnership()": {
        "details": "Leaves the contract without owner. It will not be possible to call `onlyOwner` functions anymore. Can only be called by the current owner.     * > Note: Renouncing ownership will leave the contract without an owner, thereby removing any functionality that is only available to the owner."
      },
      "supportsInterface(bytes4)": {
        "details": "See `IERC165.supportsInterface`.     * Time complexity O(1), guaranteed to always use less than 30 000 gas."
      },
      "transferOwnership(address)": {
        "details": "Transfers ownership of the contract to a new account (`newOwner`). Can only be called by the current owner."
      }
    }
  },
  "userdoc": {
    "methods": {}
  }
}